:020000040800F2
:100000003007002089010008471400088F130008FA
:10001000451400088F0200082915000800000000A0
:100020000000000000000000000000004B14000869
:100030009D02000800000000491400084D1400084B
:10004000A3010008A3010008A3010008A301000800
:10005000A3010008A3010008A3010008A3010008F0
:10006000A3010008A3010008A3010008A3010008E0
:10007000A3010008A3010008A3010008A3010008D0
:10008000A3010008A3010008A3010008A3010008C0
:10009000A301000891020008A3010008A3010008C1
:1000A000A3010008A3010008A3010008A3010008A0
:1000B000A3010008A3010008B1140008A30100086F
:1000C000A3010008A3010008A3010008A301000880
:1000D000A3010008A3010008A3010008A301000870
:1000E000A3010008A3010008A301000800F002F822
:1000F00000F03AF80AA090E8000C82448344AAF188
:100100000107DA4501D100F02FF8AFF2090EBAE885
:100110000F0013F0010F18BFFB1A43F0010318473B
:100120000015000020150000103A24BF78C878C1DF
:10013000FAD8520724BF30C830C144BF04680C60ED
:10014000704700000023002400250026103A28BF35
:1001500078C1FBD8520728BF30C148BF0B60704739
:100160001FB51FBD10B510BD00F058F81146FFF7C0
:10017000F7FF01F009FA00F076F803B4FFF7F2FF99
:1001800003BC00F07DF8000009488047094800479B
:10019000FEE7FEE7FEE7FEE7FEE7FEE7FEE7FEE737
:1001A000FEE7FEE704480549054A064B7047000094
:1001B000AD140008ED0000083001002030070020D9
:1001C00030030020300300204FF0000200B513463A
:1001D00094469646203922BFA0E80C50A0E80C5067
:1001E000B1F12001BFF4F7AF090728BFA0E80C5018
:1001F00048BF0CC05DF804EB890028BF40F8042B11
:1002000008BF704748BF20F8022B11F0804F18BF7D
:1002100000F8012B7047704770477047754600F033
:100220002BF8AE4605006946534620F00700854688
:1002300018B020B5FFF7B6FFBDE820404FF000062C
:100240004FF000074FF000084FF0000B21F00701BE
:10025000AC46ACE8C009ACE8C009ACE8C009ACE801
:10026000C0098D46704710B50446AFF300802046A4
:10027000BDE81040FFF781BF00487047CC00002068
:1002800001491820ABBEFEE7260002007047FEE7DA
:10029000014800F0F5B800001C000020704772B65D
:1002A000FEE790F82020012A07D0022A05D0416AF3
:1002B00041F48021416201207047006842690A438D
:1002C000426100207047F0B590F820500468A4689F
:1002D000012D05D0022D03D0416A41F4802153E065
:1002E00014F0406F01D1E5004BD5C4F30164022C3A
:1002F00003D9416A41F4000146E00125A5401D6093
:100300008D684FF4C0739DB1CE6835434E6845EAA1
:10031000C605066803EB0417F5514FF4C27507686C
:1003200005EB04150E697E51097D012905D009E010
:100330000E88CD6845EA4655EBE701684E5946F40C
:1003400080764E511179D2F805504FF4C67641EAC5
:100350000525016806EB04168D511178D2F80120AD
:100360004FF4C47541EA0221026805EB04155151AE
:10037000006803EB0411425842F001024250002091
:10038000F0BD416A41F4001141620120F0BD00005E
:1003900010B590F820300268012B07D0022B05D051
:1003A000416A41F480214162012010BDD2F800026F
:1003B00040F00100C2F80002087D00F01F03012098
:1003C0009840D2F81C328343C2F81C32CB69B3B9CF
:1003D000D2F80C328343C2F80C328C894B6864F338
:1003E0001F434C6902EBC404C4F840320C890B680B
:1003F00064F31F434C6902EBC404C4F84432CB6974
:10040000012B16D1D2F80C320343C2F80C320C88FF
:100410004B6864F31F434C6902EBC404C4F84032D8
:100420000C89CB6864F31F434C6902EBC404C4F825
:1004300044328B69002BD2F804320FD053EA000308
:10044000C2F804320B69002BD2F8143208D00343EF
:10045000C2F81432096A012904D008E08343EFE7A7
:100460008343F5E7D2F81C120143C2F81C12D2F8FC
:10047000000220F00100C2F80002002010BD704709
:100480002DE9F05F0546006800244669D0F8049025
:100490008768D0F80CB0D0F810A0D0F81880F10719
:1004A00048D0F90714D001218160B80703D5284648
:1004B00000F0E3F90CE0780702D54FF4006407E0A0
:1004C000380702D54FF4805402E0284600F0D4F9F2
:1004D000F80516D529684FF480708860B80503D5F3
:1004E000284600F0CCF90CE0780502D544F400541D
:1004F00007E0380502D544F4804402E0284600F0C5
:10050000BDF9F80316D529684FF480308860B80328
:1005100003D5284600F0B5F90CE0780302D544F481
:10052000004407E0380302D544F4803402E0284652
:1005300000F0A6F9300707D55FEACB6004D529683B
:10054000102044F40074C86070074FF0080707D506
:100550005FEA0B7004D52868C760284600F05AF996
:10056000B00706D52868C068800702D0284600F08A
:1005700052F9700607D55FEACA6004D529681020D1
:1005800044F480640861B00607D55FEA0A7004D5B8
:1005900028680761284600F03FF9F00606D528686C
:1005A0000069800702D0284600F037F9B00308D56B
:1005B0005FEAC96005D5296810204860284600F028
:1005C0002DF9F00307D55FEA097004D52868476064
:1005D000284600F057F9300446D55FEA497040D507
:1005E000F00504D55FEAC87001D044F00104B005FD
:1005F00004D55FEA887001D544F00204700504D583
:100600005FEA487001D544F00404300529D518F09C
:10061000700F26D008F07000402815D006DC102896
:1006200009D020280AD0302816D10AE050280ED050
:10063000602811D10EE044F008040DE044F01004ED
:100640000AE044F0200407E044F0400404E044F0F1
:10065000800401E044F480742868816921F070010D
:100660008161296804204860002C05D0686A204315
:1006700068622846FFF703FFBDE8F09F70B50400ED
:1006800003D094F8200010B104E0012070BD204692
:1006900000F082F82068016841F00101016000F07B
:1006A00003FA0546052604E000F0FEF9401B0A287F
:1006B00011D820684068C007F6D02068016821F092
:1006C0000201016000F0F0F905460BE000F0ECF9E2
:1006D000401B0A2806D9606A40F40030606284F842
:1006E0002060D2E7206840688007EFD4207E012890
:1006F000206801683DD021F080010160607E012802
:100700002068016838D021F040010160A07E0128F6
:100710002068016833D021F020010160E07E0128CB
:10072000206801682ED041F010010160207F01286F
:100730002068016829D021F008010160607F01284C
:100740002068016824D021F004010160D4E902018D
:100750000843D4E90412114308436168491E084361
:100760002168C86100206062012084F82000002018
:1007700070BD41F08001C0E741F04001C5E741F0A4
:100780002001CAE721F01001CFE741F00801D4E7CA
:1007900041F00401D9E7000010B586B000210091B6
:1007A0000191029103910068174988422AD11748A4
:1007B000C16941F00071C161C16901F0007104912A
:1007C000816941F0040181618069114C00F00400ED
:1007D00004904FF4006000906946204600F066F8EF
:1007E000A014009002200190032003906946204647
:1007F00000F05CF800221146152000F0EDF91520FC
:1008000000F0DCF906B010BD0064004000100240AA
:1008100000080140704770477047704770470000FC
:1008200070B5044690F82000012804D0606A40F4B6
:100830000020606218E0022084F82000206801682F
:1008400021F00101016000F02FF905460EE000BF24
:1008500000F02AF9401B0A2808D9606A40F40030E9
:100860006062052084F82000012070BD2068406887
:10087000C007EDD1606270BD704770477047704728
:10088000704770477047000070B5044600F00CF9DF
:100890000546601C02D004480078044400F004F9C6
:1008A000401BA042FAD370BD000000202DE9F84F94
:1008B000DFF8B891002409F1040A0AF1040B234679
:1008C0000F270BF1040EC9E00125A5402A40AA42DA
:1008D0007DD1674ED1F804C0ACEB0608B44532D0E8
:1008E00014DCBCF1030F3AD009DCBCF1000F2AD0B4
:1008F000BCF1010F1CD0BCF1020F31D11DE0BCF1E5
:10090000110F17D0BCF1120F2AD119E0B8F5881FCA
:1009100019D006DCB8F5803F15D0B8F5801F1FD17F
:1009200011E0B8F5001F0ED0B8F5041F18D10AE089
:10093000CB6815E0CB681B1D12E0CB6808330FE0D5
:10094000CB680C330CE08B682BB1012B4FF0080304
:1009500003D0456104E0042302E0056100E00023C8
:10096000FF2A01D8064601E000F104064FEA84059B
:1009700001D9A5F12005D6F8008007FA05FC28EA80
:100980000C0803FA05F548EA0508C6F800804D682A
:10099000ED0062D5374DAE6946F00106AE61AD6936
:1009A00024F0030605F001050095334D06EB050C18
:1009B000DCF80850A607360F07FA06F825EA0805FE
:1009C000DFF8B880404503D14FF0000817E044E05D
:1009D000DFF8AC80404502D14FF001080FE0DFF8AE
:1009E000A480404502D14FF0020808E0DFF898806B
:1009F000404502D14FF0030801E04FF0040808FA27
:100A000006F848EA0508CCF808804D68D9F8006077
:100A1000ED034D4601D5164300E096432E604D6828
:100A2000DAF80060AD03554601D5164300E0964361
:100A30002E604D68DBF80060ED025D4601D516437F
:100A400000E096432E604D68DEF80060AD0275460A
:100A500001D5164300E096432E60641C0D682A46BB
:100A6000E5407FF431AFBDE8F88F0000000401409D
:100A70000000111000100240000001400008014079
:100A8000000C01400010014000140140C26821EA3E
:100A900002030A4043EA0241016170470AB1016161
:100AA00070470904FBE700000148806870470000B8
:100AB000000000200248816802781144816070477C
:100AC00000000020074810B5016841F010010160E6
:100AD000032000F0A1F80F2000F006F800F050F815
:100AE000002010BD0020024030B505461F4887B0E9
:100AF000C16941F00401C161C06906A900F00400A8
:100B0000009001A800F030F90498B0B100F04CF961
:100B100040001749174AB0FBF1F11748491E02601F
:100B2000416040F2E7320021C0E903218160816128
:100B300000F012FB040003D015E000F035F9E8E7FF
:100B40000D4800F037FB04000DD11E2000F036F8F0
:100B5000102D07D2002229461E2000F03DF807483C
:100B6000056000E0012407B0204630BD00100240BF
:100B700040420F0000080040440000200400002014
:100B80000C4808B5816941F001018161816901F07A
:100B900001010091C16941F08051C161C06900F05B
:100BA000805000900448416821F0E06141F00071FC
:100BB000416008BD0010024000000140002809DB30
:100BC00000F01F02012191404009800000F1E02067
:100BD000C0F8001170470000F0B40E4B1B680C46C3
:100BE000C3F30223C3F10705042D00D90425191D01
:100BF000072901D2002300E0DB1E012606FA05F1D9
:100C0000491E214099409E40761E16403143F0BC5B
:100C100000F08BBC0CED00E0064900F0070208680C
:100C20004FF6FF03184040EA0220034A10430860D1
:100C3000704700000CED00E00000FA052DE9F047D8
:100C40000F46050061D0434E306800F00700B842FF
:100C500009D2306820F0070038433060306800F077
:100C60000700B84251D128683B4C810712D5400794
:100C700003D5606840F4E06060602878000703D521
:100C8000606840F4605060606068A96820F0F0001F
:100C9000084360602878C00728D06868012810D011
:100CA0002168022810D0890700292EDA616821F016
:100CB000030101436160FFF7F7FE804641F2883986
:100CC0000DE021688903EFE78901EDE7FFF7ECFE0E
:100CD000A0EB0801494502D90320BDE8F087606810
:100CE000696800F00C00B0EB810FEFD1306800F0C4
:100CF0000700B8420BD9306820F007003843306055
:100D0000306800F00700B84201D00120E5E72878FC
:100D1000400705D56068E96820F4E060084360603A
:100D20002878000706D56068296920F4605040EAF9
:100D3000C100606000F048F86168084AC1F303111F
:100D4000515CC8400649086006480068FFF7CCFEC1
:100D50000020C2E7002002400010024008160008F0
:100D60000C000020040000200F2202600C4A53688F
:100D700003F003034360536803F0F0038360536898
:100D800003F4E063C36052684FF4E06303EAD20205
:100D900002610448006800F0070008607047000026
:100DA00000100240002002400448054900684968DC
:100DB000044AC1F30221515CC84070470C00002076
:100DC000001002401816000812A185B00FC98DE866
:100DD0000F0014A0144A006804905168134801F0F1
:100DE0000C03042B10D0082B0ED1C1F38343C9038D
:100DF0001DF803000AD5516804AAC1F34041515CB3
:100E00000A4A5043B0FBF1F005B070470849484327
:100E1000FAE7000002030405060708090A0B0C0D97
:100E20000E0F1010010200000010024000127A00A4
:100E300000093D002DE9F84F040070D02078C04D26
:100E4000C00749D06868C0F38100012807D06868EE
:100E5000C0F38100022809D16868C00306D528685C
:100E6000800339D560680028E7D035E06068B0F5C8
:100E7000803F0BD010B1B0F5A02F11D0286820F41E
:100E800080302860286820F4802002E0286840F440
:100E900080302860606890B1FFF706FE06460AE0E1
:100EA000286840F480202860F0E700BFFFF7FCFDD1
:100EB000801B642873D828688003F7D50CE0FFF7FF
:100EC000F3FD064605E000BFFFF7EEFD801B64283A
:100ED000F0D828688003F7D420789A4E80074FF026
:100EE00001094FF0000839D5686810F00C0F07D0E1
:100EF0006868C0F38100022809D16868C00306D47D
:100F00002868800714D52069012808D110E02069DD
:100F1000B0B1C6F80090FFF7C7FD074605E00AE14B
:100F2000FFF7C2FDC01B0228C4D828688007F7D588
:100F30002868616920F0F80040EAC10028600DE0EF
:100F4000C6F80080FFF7B0FD074604E0FFF7ACFDF0
:100F5000C01B022823D828688007F7D42078000710
:100F60002CD57948A169D9B1C0F80090FFF79CFD54
:100F7000074604E0FFF798FDC01B02280FD8686AF7
:100F80008007F7D571484FF4FA510068B0FBF1F0D3
:100F9000009000BF0098411E0091FAD20EE080E060
:100FA000C0F80080FFF780FD074604E0FFF77CFDF6
:100FB000C01B022875D8686A8007F7D420784007DC
:100FC00060D5E8690027C00008D4E86940F0805087
:100FD000E861E869012700F0805000905C480168F2
:100FE000C90513D40168834641F480710160FFF79D
:100FF0005BFD824606E000BFFFF756FDA0EB0A004E
:1010000064284ED8DBF80000C005F5D5E06801285B
:101010000AD008B1052813D0286A20F00100286200
:10102000286A20F0040002E0286A40F001002862EB
:10103000E06841F2883B98B1FFF736FD82460BE04D
:10104000286A40F004002862EEE700BFFFF72CFD9D
:10105000A0EB0A0159455AD8286A8007F6D50CE05A
:10106000FFF722FD824605E0FFF71EFDA0EB0A0117
:1010700059454CD8286A8007F6D41FB1E86920F09A
:101080008050E861E06988B36968C1F38101022991
:1010900044D00228C6F8608004D0FFF705FD04465E
:1010A00038E034E0FFF700FD074604E0FFF7FCFC02
:1010B000C01B02282BD828688001F7D4206AB0F51D
:1010C000803F05D16868A16820F40030084368605B
:1010D000D4E908010843696821F474110843686081
:1010E000C6F86090FFF7E0FC044606E025E000BF8C
:1010F000FFF7DAFC001B022809D828688001F7D521
:101100001BE000BFFFF7D0FC001B022802D9032020
:10111000BDE8F88F28688001F4D40EE00128F7D0EC
:101120006868226A00F48031914204D1616A00F457
:101130007010884201D00120EAE70020E8E70000B3
:101140000010024000004242800442420C00002095
:10115000007000407047704710B5040003D094F849
:101160003D0010B107E0012010BD002084F83C00D4
:10117000204600F01EF8022084F83D00211D206862
:1011800000F09CF9012084F8460084F83E0084F8C1
:101190003F0084F8400084F8410084F8420084F85D
:1011A000430084F8440084F8450084F83D000020A2
:1011B00010BD704790F83D10012901D00120704703
:1011C000022180F83D100168CA6842F00102CA603D
:1011D00000680B49884208D0B0F1804F05D009491A
:1011E000884202D00849884204D1816801F0070191
:1011F000062903D0016841F0010101600020704719
:10120000002C01400004004000080040704770B509
:101210000446006801694FF00005C943890715D4E9
:10122000C168C943890711D4E91E016101202077F3
:10123000206880698007204602D0FFF7E7FF04E0BE
:1012400000F098F8204600F096F8257720680169AC
:10125000C943490717D4C168C943490713D46FF07C
:1012600004010161022020772068806910F4407F2A
:10127000204602D0FFF7CAFF04E000F07BF82046CA
:1012800000F079F8257720680169C943090716D469
:10129000C168C943090712D46FF008010161042035
:1012A00020772068C0698007204602D0FFF7AEFF94
:1012B00004E000F05FF8204600F05DF82577206834
:1012C0000169C943C90617D4C168C943C90613D403
:1012D0006FF010010161082020772068C06910F4C8
:1012E000407F204602D0FFF791FF04E000F042F873
:1012F000204600F040F8257720680169C943C907F6
:1013000008D1C168C943C90704D1891E01612046BB
:1013100000F032F820680169C943090609D4C168A0
:10132000C943090605D46FF0800101612046FFF72B
:1013300011FF20680169C943490609D4C168C9433E
:10134000490605D46FF040010161204600F01EF807
:1013500020680169C94389060BD4C168C94389065D
:1013600007D46FF0200101612046BDE87040FFF70F
:10137000F2BE70BD7047704700680349884201D1D2
:10138000FFF798BB70470000000800407047FEE779
:101390000F4810B50D4901600921416000214FF44B
:1013A00000328160C0E903124FF4401242610176BD
:1013B000012242768276C17601774177FFF75EF9A6
:1013C000002801D072B6FEE710BD000000640040A6
:1013D0001C00002070B586B00024184800940194C9
:1013E00002940394816941F010018161816901F0E7
:1013F00010010491816941F020018161816901F04E
:1014000020010491816941F00401816180690C4EE1
:1014100000F004004FF400550490002229463046A5
:10142000FFF73CFB01200095CDE901040220039069
:1014300069463046FFF73AFA06B070BD0010024028
:1014400000100140FEE7FEE770477047704730B577
:101450008FB028216846FEF7B7FE14210AA8FEF7D0
:10146000B3FE01210804CDE90010002402940225F6
:101470000491CDE907504FF4E01009906846FFF75A
:10148000D9FC08B172B6FEE70F20CDE90A054FF48A
:101490008060CDE90C4002210AA80E94FFF7CEFB34
:1014A000002801D072B6FEE70FB030BD70470000D3
:1014B0000148FFF7ACBE000044000020F0B5026810
:1014C000164B174C174D4FF08047984205D0B84245
:1014D00003D0A04201D0A84203D122F070064A688E
:1014E0003243984205D0B84203D0A04201D0A8426E
:1014F00003D122F44074CA6822434C6922F080026E
:10150000224302608A68C2620A688262984201D1FC
:101510000969016301214161F0BD0000002C014017
:101520000004004000080040FEE70907090E0028FB
:1015300004DB00F1E02080F80014704700F00F0099
:1015400000F1E02080F8141D704700000A4B10B530
:101550001A1D0A490A48FEF7B6FE08B1FEF79FFEBB
:101560004FF4FA70FFF790F9BDE810404FF40051C6
:101570000448FFF78BBA0000100000208C00002008
:101580001C00002000100140FFF79CFAFFF75FFFEE
:10159000FFF720FFFFF7FCFE00F004F8FFF7D6FF8F
:1015A000FCE7000010B51548012112220024016259
:1015B000C0E9044248F6C002C0E90024C0E90224A0
:1015C000C0E906411421416201460D48FEF7E0FEE4
:1015D0000B48FFF725F910210948FEF762FE07487E
:1015E00040F246411838846001600221C0E903419D
:1015F000044832210170AA21417010BDA4000020CE
:101600001C0000201400002000000000000000006A
:101610000102030406070809000000000102030498
:1016200040160008000000201C00000028010008EF
:101630005C1600081C00002014070000440100088C
:101640000100000010000000000000000024F40071
:0C1650000000000000000000000000008E
:04000005080000ED02
:00000001FF
