:020000040800F2
:1000000010080020A1010008931F0008DB1E000853
:10001000911F0008B10D00088120000800000000B9
:10002000000000000000000000000000971F000812
:10003000C10D000800000000951F0008991F00086E
:10004000BB010008BB010008BB010008BB010008A0
:10005000BB010008BB010008BB010008BB01000890
:10006000BB010008BB010008BB010008BB01000880
:10007000BB010008BB010008BB010008BB01000870
:10008000BB010008BB010008BB010008BB01000860
:1000900075200008B50D0008BB010008BB01000871
:1000A000BB010008BB010008BB010008BB01000840
:1000B000BB010008BB010008FD1F0008BB010008D0
:1000C000BB010008BB010008BB010008BB01000820
:1000D000BB010008BB010008BB010008BB01000810
:1000E000BB010008BB010008BB01000800F002F8DA
:1000F00000F047F80AA090E8000C82448344AAF17B
:100100000107DA4501D100F03CF8AFF2090EBAE878
:100110000F0013F0010F18BFFB1A43F0010318473B
:10012000E020000000210000103A24BF78C878C108
:10013000FAD8520724BF30C830C144BF04680C60ED
:10014000704700000023002400250026103A28BF35
:1001500078C1FBD8520728BF30C148BF0B60704739
:10016000782900F07180002070471FB59DE80300DA
:1001700000F0F0FB00F0E2F91FBD10B500F047FA07
:1001800010BD00F0AAFA1146FFF7EFFF01F0D0FF13
:1001900000F0AEFB03B4FFF7F0FF03BC00F06CFD12
:1001A0000948804709480047FEE7FEE7FEE7FEE70B
:1001B000FEE7FEE7FEE7FEE7FEE7FEE70448054947
:1001C000054A064B70470000F91F0008ED000008C3
:1001D000100200201008002010040020100400204D
:1001E0000FB4044910B503AA029800F079F910BCC5
:1001F0005DF814FB0401002070B5044685690068B1
:10020000C10601D5302600E02026C00707D070BD0A
:10021000D4E9012130469047206A401C20626D1EBF
:10022000F6D570BD70B5044685690078C00707D162
:1002300070BDD4E9012120209047206A401C206233
:100240006D1EF6D570BD000070B504460D46214602
:100250001068AFF300802188090502D50F4A7A445F
:1002600002E00E4A7A440E32002104F1240305E034
:1002700000F00F060009965D5E54491C0028F7D176
:1002800020780023000704D5702D02D009B1022385
:1002900011322046BDE8704000F0C8B8561F00007B
:1002A0002DE9F05F894604464FF0000ADFF824B1DB
:1002B000FB44C0F820A02046E168884700287DD094
:1002C000252806D0D4E901219047206A401C2062ED
:1002D000F1E700255F462046E1688847202806466A
:1002E00007DB312E05D2B81910F8200C08B10543F0
:1002F000F1E7A80701D525F00405C4F81CA00027E4
:10030000C4F818A02A2E09D0304601F0CAFE38B32E
:1003100004EB8708303EC8F8186019E059F8041B50
:10032000204604EB87029161E1688847012F064669
:1003300018D1E069002820DA25F020051DE0D8F862
:10034000180000EB800006EB40003038C8F81800B9
:100350002046E1688847064601F0A3FE0028EED15A
:10036000012F0AD02E2E08D12046E16888477F1C35
:100370000646022F45F02005C4DBA069002803DAF9
:10038000404245F00105A061E80701D025F01005C5
:10039000A6B1A6F14100192802D8203645F400651F
:1003A0004A463146204625604D46FFF7D9FE60B1EA
:1003B000012807D0ED1D25F0070000E007E000F15F
:1003C000080978E705F1040975E730467AE7206AFD
:1003D000BDE8F09F2C1F00004FF0000200B513464F
:1003E00094469646203922BFA0E80C50A0E80C5055
:1003F000B1F12001BFF4F7AF090728BFA0E80C5006
:1004000048BF0CC05DF804EB890028BF40F8042BFE
:1004100008BF704748BF20F8022B11F0804F18BF6B
:1004200000F8012B70477047704770472DE9F0477F
:100430000D4699469246044600F124080168880654
:1004400004D5E06921F01001216000E00120A842FC
:1004500001DD471B00E00027A1697A1902EB0900C2
:10046000081AA0612078C00602D42046FFF7C4FE17
:10047000002608E0D4E901211AF806009047206A16
:10048000401C761C20624E45F4DB2078C0060AD55D
:100490002046FFF7B1FE06E0D4E901213020904765
:1004A000206A401C2062381EA7F10107F4DC07E037
:1004B000D4E9012118F805009047206A401C206209
:1004C000281EA5F10105F3DC2046FFF7ABFE2078DE
:1004D000000602D50220BDE8F0870120FBE70000FE
:1004E000074B70B50D467B4400F011F804462846D2
:1004F00000F020F810B14FF0FF3070BD204670BD05
:10050000C71B000001694A1C02610878704700B5EA
:100510008FB0CDE901310021059105497944CDE93C
:10052000031011466846FFF7BBFE0FB000BD000088
:10053000E5FFFFFF007B00F08000704710B54248E8
:100540005421FFF749FF41485421FFF745FF404838
:100550005421FFF741FF3F493B483C4A3F4B08606D
:100560003D490A603A491960531C0365481C1065EF
:10057000012008653B48344A39A1784400F01CF951
:1005800020B9384878440A3800F0BBF937482F4A78
:1005900035A1784400F010F920B9344878440A387D
:1005A00000F0AFF932482A4A2FA1784400F004F94C
:1005B00020B92F4878440A3800F0A3F94023224894
:1005C000DC000021224600F0D4F820B12548784410
:1005D000543800F096F91D4822464023002100F0CF
:1005E000C8F820B121487844543800F08AF91848F6
:1005F00022461023002100F0BCF8002806D01C4839
:100600007844BDE81040563800F07BB910BD104862
:1006100070B5006D20F001040B4800F043F90B4861
:1006200000F040F90A4800F03DF909E0206D20F0A3
:100630000105204600F036F9204600F073F82C46FC
:10064000002CF3D170BD0000B00000200401002098
:1006500058010020180000201C000020200000206D
:1006600072000000731C0000770000005F1C000097
:100670004B1C00000EB5CDE9000100F0DDFA029040
:1006800069460120ABBE0EBD08B569460090022048
:10069000ABBE08BD1FB58DE8070069460520ABBE9F
:1006A00004B010BD1FB58DE80F0069460620ABBE33
:1006B000F6E708B5694600900920ABBE08BD1CB539
:1006C000CDE9000169460A20ABBE1CBD704708B5E4
:1006D000694600900C20ABBE08BD754600F018F9C5
:1006E000AE4605006946534620F00700854618B01F
:1006F00020B5FFF763FDBDE820404FF000064FF046
:1007000000074FF000084FF0000B21F00701AC4646
:10071000ACE8C009ACE8C009ACE8C009ACE8C00965
:100720008D46704770B50446051F00F0F7F8006865
:10073000002C14BF446870BD002C18BFAC423CBFF5
:1007400020466468F8D301680A18AA4218BF4560B9
:1007500003D12A6805461144016028684119A14265
:100760001CBF6C6070BD61686960216808442860C6
:1007700070BD70B5C468A50713D0650211D4B2F579
:10078000807F09D0B2F5007F06D0B2F5806F08D126
:10079000012300F1240106E05D1E6FF07F46B542A3
:1007A00001D3012070BD0161C361416024F4706117
:1007B0001143C160002070BD2DE9F0410C46074691
:1007C0001646104600F06EF82078611C61280AD0A9
:1007D000722802D077283CD102E00125002405E0F0
:1007E0000225042402E0082448F2020511F8010B56
:1007F0002B2806D0622809D011F8010C74280AD0E1
:100800000BE045F0030544F00204EFE745F0040572
:1008100044F00104EAE744F0100438462146FFF7AB
:1008200029FF411C15D00021316171604FF4007126
:10083000F560F1617061200704D530460222002185
:1008400000F0E6F8306D40F0010030653046BDE85C
:10085000F0810020FBE72DE9F0410D460646104CE3
:10086000206DC10704D0410804D020F00104F7E74F
:1008700022460EE0542000F09CF807000ED0206DB8
:1008800047F001010843542120653846FFF7A4FDD5
:100890003A4629463046BDE8F0418DE70020D6E7CC
:1008A000B00000202DE9F04704464FF000094FF05A
:1008B000FF37C568D4E90486A80707D0204600F0B2
:1008C00057F93046FFF7E0FE002802DA3846BDE867
:1008D000F087280502D54046FFF724FF4C2120462B
:1008E000FFF77AFD206D20F0010020654846EEE715
:1008F00010B50446AFF300802046BDE81040FFF776
:1009000049BC10B500F07EF9BDE8104000F074B9A4
:1009100000487047AC010020704700000048704755
:10092000B4010020704770477047704738B50446DF
:100930000A4600206946AFF30080002808BF38BD92
:1009400002460099204600F0A4F9012038BD01209C
:1009500000F0F3B9F8B5AFF30080054600200C466F
:10096000102000BF0646A819A0420DD9324669469C
:100970000020AFF30080070008BF00F0DEF9009808
:10098000A04218BF0546C419FFF7C8FF0560074617
:10099000F01D20F007004619284600F073F9B44214
:1009A00008BFF8BDA21B31463868BDE8F84000F02A
:1009B00070B970B50646FFF7B1FF056806F10B0088
:1009C00020F00704B4429CBF002070BD2B466A682B
:1009D000BAB11068A04210D304F1080188423CBFAC
:1009E0005068586007D35168101941601168091B9D
:1009F000016058601460101D70BD13465268002AD3
:100A0000E7D121462846FFF791FF0028DED170BDCF
:100A10002DE9F041044616460D464769007B8007E4
:100A20002ED03846FFF745FE50BB3EB3012E02D014
:100A3000022E25D104E0204600F045F905441DE0D2
:100A40003846FFF744FEE168002841F01001E160FC
:100A500005DA204600F058F80120BDE8F081C9030E
:100A60000BD56268E16A914200D81146A26911442F
:100A70002269891A814200DD08460544002D01DA09
:100A80000220EAE7E16A6068E268814206D29103E7
:100A9000E06203D522F4003141F01002A66900277C
:100AA000AE4213DCE16A814201D90B4600E0034605
:100AB00003EB060C2369ACEB030CAC4506DD81426D
:100AC00001D98C4600E084469C4505D1A76027608B
:100AD00042F02000A5620DE0AD1BE669AE1B81422D
:100AE000A66000D90846C01A281A2060581960600C
:100AF00022F0200003490840E060002084F848709C
:100B0000ABE70000BFCFD7FFC16821F4001141F06F
:100B10008001C16000218160016070472DE9F047CC
:100B2000814614460E464FF0FF383248D568576963
:100B3000054209D03846A169FFF7C1FD002811DB45
:100B40002C48C0430540E5602B46324649463846AE
:100B5000FFF7A0FDA16920F00042B21A114400285D
:100B6000A16103D02046FFF7CFFF4046BDE8F087E4
:100B700070B504460569C06A6168884200D80846B5
:100B8000E16821F42011E160C90312D5A84208D020
:100B90002246411B2846FFF7C1FF10B14FF0FF303E
:100BA00070BD0020E562C4E90150E06820F48030A7
:100BB000E060002070BD10B50446C06820F0200041
:100BC000E060A16AA06988420DD02046FFF7D0FFFF
:100BD000E06820F4405040F01000E060A06AA0619E
:100BE0002069E062606044F24001E0688843E060B0
:100BF00010BD000010000200002801D000F03CB839
:100C00007047000010B5014602A000F07DF80120F9
:100C100010BD000053494752545245443A20526592
:100C20006469726563743A2063616E2774206F7023
:100C3000656E3A200000000010B5431C02E010F879
:100C4000011B71B18107FAD14FF0013202C88C1A31
:100C50008C4314EAC211F9D0C01A0A0603D0C01E90
:100C600010BDC01A10BD0A0401D0801E10BD0902BB
:100C7000FCD0401E10BD000001491820ABBEFEE7AD
:100C80002600020000210160C0E901107047102019
:100C90007047034640688C46002818BF88423CBF16
:100CA00003464068F8D318681844884207D00CF10E
:100CB000030020F00700001D411A521A0146081DCA
:100CC0000A60FFF72FBD10B50146C268900703D038
:100CD000900607D5886A0AE000F03EF8012101601D
:100CE000881E10BD8B69486818440B69C01A91F8BA
:100CF00048301BB191F84910401A10BD1103FCD5C2
:100D00000028FADD401E10BD70B505460C460A20CD
:100D100000E06D1C00F018F835B128780028F8D1F3
:100D200002E0641C00F010F814B120780028F8D11B
:100D3000BDE870400A2000F007B810B500F010F8C8
:100D4000BDE81040FFF758BF08B569468DF80000B0
:100D50000320ABBE08BD000000487047AC01002076
:100D600010B5012805D0002103A0FFF7CDFF012019
:100D700010BD09A1F8E7000053494752544D454DB5
:100D80003A204F7574206F662068656170206D652C
:100D90006D6F7279000000003A2048656170206D27
:100DA000656D6F727920636F72727570746564001F
:100DB000FEE70000014800F003B900002400002015
:100DC000704790F82020012A07D0022A05D0416AF6
:100DD00041F48021416201207047006842690A4362
:100DE000426100207047000010B590F82030026882
:100DF000012B07D0022B05D0416A41F480214162CA
:100E0000012010BDD2F8000240F00100C2F800023B
:100E1000087D00F01F0301209840D2F81C32834364
:100E2000C2F81C32CB69B3B9D2F80C328343C2F892
:100E30000C328C894B6864F31F434C6902EBC40489
:100E4000C4F840320C890B6864F31F434C6902EB11
:100E5000C404C4F84432CB69012B16D1D2F80C3249
:100E60000343C2F80C320C884B6864F31F434C698F
:100E700002EBC404C4F840320C89CB6864F31F430E
:100E80004C6902EBC404C4F844328B69002BD2F8DD
:100E900004320FD053EA0003C2F804320B69002B6E
:100EA000D2F8143208D00343C2F81432096A012977
:100EB00004D008E08343EFE78343F5E7D2F81C1240
:100EC0000143C2F81C12D2F8000220F00100C2F85F
:100ED0000002002010BD704730B590F82040012C72
:100EE00005D0022C03D0416A41F480215DE0046802
:100EF000002955D02469A40754D04FF4D87405684C
:100F000004EB01142D5915F00405956005682D5961
:100F10004ED0ED08556005682C5904F00204D460E9
:100F20004FF4DA74056804EB01142D5905F00F0530
:100F3000156105682D59C5F30725956105682C597C
:100F4000240C54614FF4DC72046802EB0112A458C3
:100F50001C700468A458240A5C700468A458240C0B
:100F60009C700468A258120EDA704FF4DE720468A6
:100F700002EB0112A4581C710468A458240A5C7185
:100F80000468A458240C9C710468A258120EDA71EB
:100F9000006881B1016941F020010161002030BD8C
:100FA000E468A8E7416A41F400114162012030BDC4
:100FB0006D0D1560AFE7C16841F02001C160EDE73C
:100FC0002DE9F05F0546006800244669D0F80490DA
:100FD0008768D0F80CB0D0F810A0D0F81880F107CE
:100FE00048D0F90714D001218160B80703D52846FD
:100FF00000F0F1F90CE0780702D54FF4006407E047
:10100000380702D54FF4805402E0284600F0E2F998
:10101000F80516D529684FF480708860B80503D5A7
:10102000284600F0DAF90CE0780502D544F40054C3
:1010300007E0380502D544F4804402E0284600F079
:10104000CBF9F80316D529684FF480308860B803CF
:1010500003D5284600F0C3F90CE0780302D544F428
:10106000004407E0380302D544F4803402E0284607
:1010700000F0B4F9300707D55FEACB6004D52968E2
:10108000102044F40074C86070074FF0080707D5BB
:101090005FEA0B7004D52868C760284600F062F943
:1010A000B00706D52868C068800702D0284600F03F
:1010B0005BF9700607D55FEACA6004D5296810207D
:1010C00044F480640861B00607D55FEA0A7004D56D
:1010D00028680761284600F04DF9F00606D5286813
:1010E0000069800702D0284600F045F9B00308D512
:1010F0005FEAC96005D5296810204860284600F0DD
:101100003BF9F00307D55FEA097004D5286847600A
:10111000284600F065F9300446D55FEA497040D5AD
:10112000F00504D55FEAC87001D044F00104B005B1
:1011300004D55FEA887001D544F00204700504D537
:101140005FEA487001D544F00404300529D518F051
:10115000700F26D008F07000402815D006DC10284B
:1011600009D020280AD0302816D10AE050280ED005
:10117000602811D10EE044F008040DE044F01004A2
:101180000AE044F0200407E044F0400404E044F0A6
:10119000800401E044F480742868816921F07001C2
:1011A0008161296804204860002C05D0686A2043CA
:1011B00068622846FFF78FFEBDE8F09F70B5040017
:1011C00003D094F8200010B104E0012070BD204647
:1011D00000F082F82068016841F00101016000F030
:1011E00009FA0546052604E000F004FA401B0A2827
:1011F00011D820684068C007F6D02068016821F047
:101200000201016000F0F6F905460BE000F0F2F98A
:10121000401B0A2806D9606A40F40030606284F8F6
:101220002060D2E7206840688007EFD4207E012844
:10123000206801683DD021F080010160607E0128B6
:101240002068016838D021F040010160A07E0128AB
:101250002068016833D021F020010160E07E012880
:10126000206801682ED041F010010160207F012824
:101270002068016829D021F008010160607F012801
:101280002068016824D021F004010160D4E9020142
:101290000843D4E90412114308436168491E084316
:1012A0002168C86100206062012084F820000020CD
:1012B00070BD41F08001C0E741F04001C5E741F059
:1012C0002001CAE721F01001CFE741F00801D4E77F
:1012D00041F00401D9E7000010B586B0002100916B
:1012E00001910291039100681B49884232D11B4849
:1012F000C16941F00071C161C16901F000710491DF
:10130000816941F0040181618069154C00F004009D
:1013100004904FF4006000906946204600F074F895
:10132000A0140090022001900320039069462046FB
:1013300000F06AF800221146142000F0F3F914209E
:1013400000F0E2F900221146152000F0EBF915201B
:1013500000F0DAF906B010BD006400400010024051
:10136000000801407047000001A0FEF739BF0000EF
:10137000320D0A00704770477047000070B5044690
:1013800090F82000012804D0606A40F400206062D8
:1013900018E0022084F820002068016821F0010193
:1013A000016000F027F905460EE000BF00F022F9C9
:1013B000401B0A2808D9606A40F4003060620520AA
:1013C00084F82000012070BD20684068C007EDD17E
:1013D000606270BD704770477047704770477047D4
:1013E0007047000070B5044600F004F90546601C23
:1013F00002D004480078044400F0FCF8401BA042EE
:10140000FAD370BD000000202DE9F84FDFF8B89145
:10141000002409F1040A0AF1040B23460F270BF1FB
:10142000040EC9E00125A5402A40AA427DD1674E9D
:10143000D1F804C0ACEB0608B44532D014DCBCF1E2
:10144000030F3AD009DCBCF1000F2AD0BCF1010F28
:101450001CD0BCF1020F31D11DE0BCF1110F17D02F
:10146000BCF1120F2AD119E0B8F5881F19D006DC9B
:10147000B8F5803F15D0B8F5801F1FD111E0B8F541
:10148000001F0ED0B8F5041F18D10AE0CB6815E094
:10149000CB681B1D12E0CB6808330FE0CB680C3320
:1014A0000CE08B682BB1012B4FF0080303D0456192
:1014B00004E0042302E0056100E00023FF2A01D8D4
:1014C000064601E000F104064FEA840501D9A5F1C2
:1014D0002005D6F8008007FA05FC28EA0C0803FA74
:1014E00005F548EA0508C6F800804D68ED0062D5AC
:1014F000374DAE6946F00106AE61AD6924F00306D2
:1015000005F001050095334D06EB050CDCF808509D
:10151000A607360F07FA06F825EA0805DFF8B880AF
:10152000404503D14FF0000817E044E0DFF8AC80FD
:10153000404502D14FF001080FE0DFF8A48040459C
:1015400002D14FF0020808E0DFF89880404502D150
:101550004FF0030801E04FF0040808FA06F848EAE3
:101560000508CCF808804D68D9F80060ED034D46B9
:1015700001D5164300E096432E604D68DAF800600E
:10158000AD03554601D5164300E096432E604D68E5
:10159000DBF80060ED025D4601D5164300E096439E
:1015A0002E604D68DEF80060AD02754601D5164329
:1015B00000E096432E60641C0D682A46E5407FF4E7
:1015C00031AFBDE8F88F00000004014000001110A9
:1015D000001002400000014000080140000C0140E2
:1015E00000100140001401400AB101617047090474
:1015F000FBE7000001488068704700000000002001
:101600000248816802781144816070470000002020
:10161000074810B5016841F010010160032000F097
:10162000A1F80F2000F006F800F050F8002010BDDF
:101630000020024030B505461F4887B0C16941F01F
:101640000401C161C06906A900F00400009001A86E
:1016500000F030F90498B0B100F04CF9400017499F
:10166000174AB0FBF1F11748491E0260416040F291
:10167000E7320021C0E903218160816100F012FBA3
:10168000040003D015E000F035F9E8E70D4800F05C
:1016900037FB04000DD11E2000F036F8102D07D2C4
:1016A000002229461E2000F03DF80748056000E0B2
:1016B000012407B0204630BD0010024040420F0018
:1016C000000800404C000020040000200C4808B531
:1016D000816941F001018161816901F0010100919D
:1016E000C16941F08051C161C06900F08050009033
:1016F0000448416821F0E06141F00071416008BD9B
:101700000010024000000140002809DB00F01F0229
:10171000012191404009800000F1E020C0F8001153
:1017200070470000F0B40E4B1B680C46C3F3022355
:10173000C3F10705042D00D90425191D072901D27D
:10174000002300E0DB1E012606FA05F1491E2140B8
:1017500099409E40761E16403143F0BC00F091BC8B
:101760000CED00E0064900F0070208684FF6FF03A1
:10177000184040EA0220034A104308607047000006
:101780000CED00E00000FA052DE9F0470F460500DA
:1017900061D0434E306800F00700B84209D230688B
:1017A00020F0070038433060306800F00700B8428E
:1017B00051D128683B4C810712D5400703D560689A
:1017C00040F4E06060602878000703D5606840F46A
:1017D000605060606068A96820F0F00008436060B5
:1017E0002878C00728D06868012810D0216802280E
:1017F00010D0890700292EDA616821F00301014326
:101800006160FFF7F7FE804641F288390DE02168FC
:101810008903EFE78901EDE7FFF7ECFEA0EB080194
:10182000494502D90320BDE8F0876068696800F087
:101830000C00B0EB810FEFD1306800F00700B84228
:101840000BD9306820F0070038433060306800F072
:101850000700B84201D00120E5E72878400705D508
:101860006068E96820F4E060084360602878000759
:1018700006D56068296920F4605040EAC1006060C4
:1018800000F048F86168084AC1F30311515CC84090
:101890000649086006480068FFF7CCFE0020C2E752
:1018A0000020024000100240A02100080C0000208F
:1018B000040000200F2202600C4A536803F0030367
:1018C0004360536803F0F0038360536803F4E063FC
:1018D000C36052684FF4E06303EAD2020261044835
:1018E000006800F007000860704700000010024028
:1018F000002002400448054900684968044AC1F3D1
:101900000221515CC84070470C00002000100240CA
:10191000B021000812A185B00FC98DE80F0014A0F6
:10192000144A006804905168134801F00C03042B1A
:1019300010D0082B0ED1C1F38343C9031DF8030057
:101940000AD5516804AAC1F34041515C0A4A504388
:10195000B0FBF1F005B0704708494843FAE70000D2
:1019600002030405060708090A0B0C0D0E0F1010E0
:10197000010200000010024000127A0000093D0040
:101980002DE9F84F040070D02078C04DC00749D031
:101990006868C0F38100012807D06868C0F381003F
:1019A000022809D16868C00306D52868800339D5A4
:1019B00060680028E7D035E06068B0F5803F0BD064
:1019C00010B1B0F5A02F11D0286820F48030286025
:1019D000286820F4802002E0286840F480302860E5
:1019E000606890B1FFF706FE06460AE0286840F4FA
:1019F00080202860F0E700BFFFF7FCFD801B642813
:101A000073D828688003F7D50CE0FFF7F3FD06468E
:101A100005E000BFFFF7EEFD801B6428F0D82868C2
:101A20008003F7D420789A4E80074FF001094FF0D9
:101A3000000839D5686810F00C0F07D06868C0F34B
:101A40008100022809D16868C00306D4286880078D
:101A500014D52069012808D110E02069B0B1C6F87A
:101A60000090FFF7C7FD074605E00AE1FFF7C2FD5A
:101A7000C01B0228C4D828688007F7D52868616988
:101A800020F0F80040EAC10028600DE0C6F80080B0
:101A9000FFF7B0FD074604E0FFF7ACFDC01B0228CE
:101AA00023D828688007F7D4207800072CD57948F8
:101AB000A169D9B1C0F80090FFF79CFD074604E08A
:101AC000FFF798FDC01B02280FD8686A8007F7D57A
:101AD00071484FF4FA510068B0FBF1F0009000BF7C
:101AE0000098411E0091FAD20EE080E0C0F800801C
:101AF000FFF780FD074604E0FFF77CFDC01B0228CE
:101B000075D8686A8007F7D42078400760D5E869FF
:101B10000027C00008D4E86940F08050E861E86917
:101B2000012700F0805000905C480168C90513D47B
:101B30000168834641F480710160FFF75BFD8246D6
:101B400006E000BFFFF756FDA0EB0A0064284ED860
:101B5000DBF80000C005F5D5E06801280AD008B11F
:101B6000052813D0286A20F001002862286A20F096
:101B7000040002E0286A40F001002862E06841F2B7
:101B8000883B98B1FFF736FD82460BE0286A40F0AB
:101B900004002862EEE700BFFFF72CFDA0EB0A016E
:101BA00059455AD8286A8007F6D50CE0FFF722FD80
:101BB000824605E0FFF71EFDA0EB0A0159454CD80F
:101BC000286A8007F6D41FB1E86920F08050E861E8
:101BD000E06988B36968C1F38101022944D0022811
:101BE000C6F8608004D0FFF705FD044638E034E015
:101BF000FFF700FD074604E0FFF7FCFCC01B0228CE
:101C00002BD828688001F7D4206AB0F5803F05D131
:101C10006868A16820F4003008436860D4E90801CE
:101C20000843696821F4741108436860C6F860903D
:101C3000FFF7E0FC044606E025E000BFFFF7DAFC12
:101C4000001B022809D828688001F7D51BE000BFD7
:101C5000FFF7D0FC001B022802D90320BDE8F88F53
:101C600028688001F4D40EE00128F7D06868226A61
:101C700000F48031914204D1616A00F4701088420E
:101C800001D00120EAE70020E8E700000010024050
:101C900000004242800442420C00002000700040DC
:101CA0007047704710B5040003D094F83D0010B1A0
:101CB00007E0012010BD002084F83C00204600F021
:101CC0001EF8022084F83D00211D206800F09CF9D8
:101CD000012084F8460084F83E0084F83F0084F830
:101CE000400084F8410084F8420084F8430084F8FE
:101CF000440084F8450084F83D00002010BD704782
:101D000090F83D10012901D001207047022180F890
:101D10003D100168CA6842F00102CA6000680B49C0
:101D2000884208D0B0F1804F05D00949884202D0DE
:101D30000849884204D1816801F00701062903D0CF
:101D4000016841F00101016000207047002C014052
:101D50000004004000080040704770B50446006869
:101D600001694FF00005C943890715D4C168C9430B
:101D7000890711D4E91E016101202077206880695C
:101D80008007204602D0FFF7E7FF04E000F098F854
:101D9000204600F096F8257720680169C943490775
:101DA00017D4C168C943490713D46FF00401016116
:101DB000022020772068806910F4407F204602D0FE
:101DC000FFF7CAFF04E000F07BF8204600F079F846
:101DD000257720680169C943090716D4C168C9433A
:101DE000090712D46FF008010161042020772068F0
:101DF000C0698007204602D0FFF7AEFF04E000F084
:101E00005FF8204600F05DF8257720680169C94336
:101E1000C90617D4C168C943C90613D46FF01001AD
:101E20000161082020772068C06910F4407F2046B7
:101E300002D0FFF791FF04E000F042F8204600F0E6
:101E400040F8257720680169C943C90708D1C168EE
:101E5000C943C90704D1891E0161204600F032F848
:101E600020680169C943090609D4C168C943090644
:101E700005D46FF0800101612046FFF711FF206853
:101E80000169C943490609D4C168C943490605D453
:101E90006FF040010161204600F01EF820680169E2
:101EA000C94389060BD4C168C943890607D46FF0BA
:101EB000200101612046BDE87040FFF7F2BE70BD11
:101EC0007047704700680349884201D1FFF798BB0B
:101ED00070470000000800407047FEE70F4810B54B
:101EE0000D4901600921416000214FF400328160F9
:101EF000C0E903124FF4401242610176012242769A
:101F00008276C17601774177FFF758F9002801D032
:101F100072B6FEE710BD00000064004024000020FF
:101F200070B586B00024184800940194029403947C
:101F3000816941F010018161816901F01001049112
:101F4000816941F020018161816901F020010491E2
:101F5000816941F00401816180690C4E00F0040048
:101F60004FF400550490002229463046FFF73CFB11
:101F700001200095CDE90104022003906946304616
:101F8000FFF742FA06B070BD001002400010014099
:101F9000FEE7FEE770477047704730B58FB02821E5
:101FA0006846FEF719FA14210AA8FEF715FA01216E
:101FB0000804CDE900100024029402250491CDE923
:101FC00007504FF4E01009906846FFF7D9FC08B1BC
:101FD00072B6FEE70F20CDE90A054FF48060CDE927
:101FE0000C4002210AA80E94FFF7CEFB002801D076
:101FF00072B6FEE70FB030BD704700000148FFF732
:10200000ACBE00004C000020F0B50268164B174C27
:10201000174D4FF08047984205D0B84203D0A042F8
:1020200001D0A84203D122F070064A683243984298
:1020300005D0B84203D0A04201D0A84203D122F477
:102040004074CA6822434C6922F080022243026035
:102050008A68C2620A688262984201D10969016392
:1020600001214161F0BD0000002C0140000400404E
:10207000000800400148FEF7A3BF00002400002034
:10208000FEE70907090E002804DB00F1E02080F8D4
:102090000014704700F00F0000F1E02080F8141DDC
:1020A000704730380A2801D201207047002070475D
:1020B00008490968C90706D0064980390968CA076E
:1020C0004FF0604101D1704700BF0A68002AFBD081
:1020D00008707047800E00E010B50C4B0C4A0021D0
:1020E0000C48FEF7F9FE4FF4FA70FFF77BF907484A
:1020F000017809A0FEF774F80548016808A0FEF70A
:102100006FF8BDE8104008A0FEF76AB81000002084
:1021100094000020240000202530327820000000A8
:1021200025303478200000002E2E2E2E2E0D0A0091
:10213000FFF76EFAFFF731FFFFF7F2FEFFF7CEFE73
:1021400000F004F8FFF7C8FFFCE7000000B58BB013
:1021500012200590002048F6C00201210891CDE927
:102160000020CDE90220CDE9060104901420099059
:1021700069460748FEF738FE0548FFF7FFF81021CB
:102180000348FEF71EFE03A0FEF72AF80BB000BDC1
:102190002400002057656C636F6D6520210D0A00D7
:1021A0000000000000000000010203040607080907
:1021B0000000000001020304303132333435363779
:1021C000383941424344454640305800303132337B
:1021D000343536373839616263646566403078007B
:1021E00004000008000000000000000200010000E0
:1021F000103A7474003A7474003A74740000000069
:10220000202200080000002024000000280100080F
:102210004422000824000020EC07000044010008CC
:102220000100000010000000000000000024F40085
:10223000000000000000000000000000000000009E
:04224000000000009A
:04000005080000ED02
:00000001FF
